:020000020000FC
:040000006FC04BC0C2
:020008002CC00A
:02001A0007C01D
:10002A0002B3102F007F1F70000F003807FD00E198
:10003A00012B04FD122F05FD132F06FD142F02BB01
:10004A0018BB4EF00BB706FD06C0F3940F2D0A300D
:10005A0011F458D0FF241895552361F060D05A95B1
:10006A0009F01895CED000E218E00BBD1ABD4AD0AF
:10007A00CED0189583958A3051F4882773957A30B3
:10008A0031F4772763956A3011F4662793951895AA
:10009A00E39441D0AEF00CB50F73083208F0085162
:1000AA000F3010F418E1010F502F0CE013EA0BBDCA
:1000BA001ABD09B7006409BF32D035D068941895C3
:1000CA00E89409B70F7B09BFA6D044D095D09CD03D
:1000DA000FEF0ABF18950FED0DBF25D00FEF07BB25
:1000EA0001E701BB05E102BB0DEA06BF02E000BF62
:1000FA0004E003BF09B7016009BF86D0EE24DD24FE
:10010A007894FFCF05B7036005BF0FEF0ABF0BB79F
:10011A0000640BBF08950BB70F7B0BBF0895002730
:10012A000DBD0CBD08950027F2E0E8E2E00F0027BC
:10013A00F01FC895202DF2E0E8E2E00F0027F01F3B
:10014A00C895302DF2E0E8E2E00F0027F01FC895CD
:10015A00402D089511279536B8F00BE0F2E0E8E259
:10016A00E00F0027F01FC895202DF2E0E8E2E00F2B
:10017A000027F01FC895302DF2E0E8E2E00F0027D3
:10018A00F01FC895402D0895943631F480E070E050
:10019A0061E01127116014C09A3058F000270395C6
:1001AA009A509A30E0F7862F792F602F1127126024
:1001BA0007C0992329F0872F762F692F11271460FA
:1001CA00F2E0E8E2E80F8827F81FC895202DF2E050
:1001DA00E8E2E70F7727F71FC895302DF2E0E8E24B
:1001EA00E60F6627F61FC895402D10FD206811FD01
:1001FA00306812FD4068089599276627772788276F
:10020A00089509E00EBD08950CE00EBD089502B3ED
:10021A000E7F02BB089502B3016002BB08953F0638
:0A022A005B4F666D7D077F6FFFFFDD
:00000001FF
